{
  "_format": "hh-sol-artifact-1",
  "contractName": "Credits",
  "sourceName": "contracts/Credits.sol",
  "abi": [
    {
      "inputs": [],
      "stateMutability": "nonpayable",
      "type": "constructor"
    },
    {
      "inputs": [],
      "name": "AccessOnlyToOwner",
      "type": "error"
    },
    {
      "inputs": [
        {
          "internalType": "uint256",
          "name": "NoOfTypes",
          "type": "uint256"
        },
        {
          "internalType": "uint256",
          "name": "NoOfData",
          "type": "uint256"
        }
      ],
      "name": "DataMisMatch",
      "type": "error"
    },
    {
      "inputs": [],
      "name": "NewOwnerCanOnlyRequest",
      "type": "error"
    },
    {
      "inputs": [],
      "name": "NoAccessToData",
      "type": "error"
    },
    {
      "inputs": [],
      "name": "acceptOwnerShip",
      "outputs": [],
      "stateMutability": "nonpayable",
      "type": "function"
    },
    {
      "inputs": [],
      "name": "getAllUserIds",
      "outputs": [
        {
          "internalType": "string[]",
          "name": "",
          "type": "string[]"
        }
      ],
      "stateMutability": "view",
      "type": "function"
    },
    {
      "inputs": [
        {
          "internalType": "string",
          "name": "userId",
          "type": "string"
        },
        {
          "internalType": "string",
          "name": "data_type",
          "type": "string"
        }
      ],
      "name": "getCredits",
      "outputs": [
        {
          "internalType": "string",
          "name": "",
          "type": "string"
        }
      ],
      "stateMutability": "view",
      "type": "function"
    },
    {
      "inputs": [
        {
          "internalType": "string",
          "name": "userId",
          "type": "string"
        }
      ],
      "name": "getStatus",
      "outputs": [
        {
          "internalType": "enum Credits.Status",
          "name": "",
          "type": "uint8"
        }
      ],
      "stateMutability": "view",
      "type": "function"
    },
    {
      "inputs": [],
      "name": "getUserId",
      "outputs": [
        {
          "internalType": "string",
          "name": "",
          "type": "string"
        }
      ],
      "stateMutability": "view",
      "type": "function"
    },
    {
      "inputs": [
        {
          "internalType": "address",
          "name": "_newOwner",
          "type": "address"
        }
      ],
      "name": "transferOwnerShip",
      "outputs": [],
      "stateMutability": "nonpayable",
      "type": "function"
    },
    {
      "inputs": [
        {
          "internalType": "string[]",
          "name": "data_type",
          "type": "string[]"
        },
        {
          "internalType": "string[]",
          "name": "data",
          "type": "string[]"
        }
      ],
      "name": "updateCredits",
      "outputs": [],
      "stateMutability": "nonpayable",
      "type": "function"
    },
    {
      "inputs": [
        {
          "internalType": "string",
          "name": "userid",
          "type": "string"
        },
        {
          "internalType": "uint256",
          "name": "verificationStatus",
          "type": "uint256"
        }
      ],
      "name": "updateStatus",
      "outputs": [],
      "stateMutability": "nonpayable",
      "type": "function"
    }
  ],
  "bytecode": "0x60806040526000600760006101000a81548173ffffffffffffffffffffffffffffffffffffffff021916908373ffffffffffffffffffffffffffffffffffffffff16021790555034801561005257600080fd5b5033600660006101000a81548173ffffffffffffffffffffffffffffffffffffffff021916908373ffffffffffffffffffffffffffffffffffffffff160217905550611bb1806100a36000396000f3fe608060405234801561001057600080fd5b50600436106100885760003560e01c8063967b8c721161005b578063967b8c7214610113578063ac53520a1461011d578063be4906c91461014d578063fee6a8bf1461016b57610088565b806322b05ed21461008d5780632ebcb653146100bd578063366b657b146100db5780638863dd1a146100f7575b600080fd5b6100a760048036038101906100a29190610e91565b610187565b6040516100b49190610f55565b60405180910390f35b6100c56101bf565b6040516100d29190611000565b60405180910390f35b6100f560048036038101906100f09190611058565b61028d565b005b610111600480360381019061010c9190611116565b61040b565b005b61011b6104d6565b005b61013760048036038101906101329190611273565b610604565b6040516101449190611000565b60405180910390f35b6101556108ee565b60405161016291906113fb565b60405180910390f35b61018560048036038101906101809190611554565b610a4e565b005b60006004838360405161019b929190611600565b908152602001604051809103902060009054906101000a900460ff16905092915050565b60606000803373ffffffffffffffffffffffffffffffffffffffff1673ffffffffffffffffffffffffffffffffffffffff168152602001908152602001600020805461020a90611648565b80601f016020809104026020016040519081016040528092919081815260200182805461023690611648565b80156102835780601f1061025857610100808354040283529160200191610283565b820191906000526020600020905b81548152906001019060200180831161026657829003601f168201915b5050505050905090565b600660009054906101000a900473ffffffffffffffffffffffffffffffffffffffff1673ffffffffffffffffffffffffffffffffffffffff163373ffffffffffffffffffffffffffffffffffffffff1614610314576040517f2dca963600000000000000000000000000000000000000000000000000000000815260040160405180910390fd5b6000810361036657600260048484604051610330929190611600565b908152602001604051809103902060006101000a81548160ff021916908360028111156103605761035f610ede565b5b02179055505b600181036103bc57600160048484604051610382929190611600565b908152602001604051809103902060006101000a81548160ff021916908360028111156103b2576103b1610ede565b5b0217905550610406565b6000600484846040516103d0929190611600565b908152602001604051809103902060006101000a81548160ff02191690836002811115610400576103ff610ede565b5b02179055505b505050565b600660009054906101000a900473ffffffffffffffffffffffffffffffffffffffff1673ffffffffffffffffffffffffffffffffffffffff163373ffffffffffffffffffffffffffffffffffffffff1614610492576040517f2dca963600000000000000000000000000000000000000000000000000000000815260040160405180910390fd5b80600760006101000a81548173ffffffffffffffffffffffffffffffffffffffff021916908373ffffffffffffffffffffffffffffffffffffffff16021790555050565b600760009054906101000a900473ffffffffffffffffffffffffffffffffffffffff1673ffffffffffffffffffffffffffffffffffffffff163373ffffffffffffffffffffffffffffffffffffffff161461055d576040517f07cc72f800000000000000000000000000000000000000000000000000000000815260040160405180910390fd5b600760009054906101000a900473ffffffffffffffffffffffffffffffffffffffff16600660006101000a81548173ffffffffffffffffffffffffffffffffffffffff021916908373ffffffffffffffffffffffffffffffffffffffff1602179055506000600760006101000a81548173ffffffffffffffffffffffffffffffffffffffff021916908373ffffffffffffffffffffffffffffffffffffffff160217905550565b606060008060003373ffffffffffffffffffffffffffffffffffffffff1673ffffffffffffffffffffffffffffffffffffffff168152602001908152602001600020805461065190611648565b80601f016020809104026020016040519081016040528092919081815260200182805461067d90611648565b80156106ca5780601f1061069f576101008083540402835291602001916106ca565b820191906000526020600020905b8154815290600101906020018083116106ad57829003601f168201915b50505050509050846040516020016106e291906116aa565b604051602081830303815290604052805190602001208160405160200161070991906116aa565b6040516020818303038152906040528051906020012014158061078f575060038560405161073791906116aa565b90815260200160405180910390208160405161075391906116aa565b90815260200160405180910390208484604051610771929190611600565b908152602001604051809103902060009054906101000a900460ff16155b806107e85750600660009054906101000a900473ffffffffffffffffffffffffffffffffffffffff1673ffffffffffffffffffffffffffffffffffffffff163373ffffffffffffffffffffffffffffffffffffffff1614155b1561081f576040517f5397fe6100000000000000000000000000000000000000000000000000000000815260040160405180910390fd5b60028560405161082f91906116aa565b9081526020016040518091039020848460405161084d929190611600565b9081526020016040518091039020805461086690611648565b80601f016020809104026020016040519081016040528092919081815260200182805461089290611648565b80156108df5780601f106108b4576101008083540402835291602001916108df565b820191906000526020600020905b8154815290600101906020018083116108c257829003601f168201915b50505050509150509392505050565b6060600660009054906101000a900473ffffffffffffffffffffffffffffffffffffffff1673ffffffffffffffffffffffffffffffffffffffff163373ffffffffffffffffffffffffffffffffffffffff1614610977576040517f2dca963600000000000000000000000000000000000000000000000000000000815260040160405180910390fd5b6005805480602002602001604051908101604052809291908181526020016000905b82821015610a455783829060005260206000200180546109b890611648565b80601f01602080910402602001604051908101604052809291908181526020018280546109e490611648565b8015610a315780601f10610a0657610100808354040283529160200191610a31565b820191906000526020600020905b815481529060010190602001808311610a1457829003601f168201915b505050505081526020019060010190610999565b50505050905090565b80518383905014610a9c578282905081516040517fef8d2917000000000000000000000000000000000000000000000000000000008152600401610a939291906116d0565b60405180910390fd5b60008060003373ffffffffffffffffffffffffffffffffffffffff1673ffffffffffffffffffffffffffffffffffffffff1681526020019081526020016000208054610ae790611648565b80601f0160208091040260200160405190810160405280929190818152602001828054610b1390611648565b8015610b605780601f10610b3557610100808354040283529160200191610b60565b820191906000526020600020905b815481529060010190602001808311610b4357829003601f168201915b505050505090506000815103610cc357610b7933610dbf565b6000803373ffffffffffffffffffffffffffffffffffffffff1673ffffffffffffffffffffffffffffffffffffffff1681526020019081526020016000209081610bc391906118a5565b506000803373ffffffffffffffffffffffffffffffffffffffff1673ffffffffffffffffffffffffffffffffffffffff1681526020019081526020016000208054610c0d90611648565b80601f0160208091040260200160405190810160405280929190818152602001828054610c3990611648565b8015610c865780601f10610c5b57610100808354040283529160200191610c86565b820191906000526020600020905b815481529060010190602001808311610c6957829003601f168201915b50505050509050600581908060018154018082558091505060019003906000526020600020016000909190919091509081610cc191906118a5565b505b600084849050905060005b81811015610d7057838181518110610ce957610ce8611977565b5b6020026020010151600284604051610d0191906116aa565b9081526020016040518091039020878784818110610d2257610d21611977565b5b9050602002810190610d3491906119b5565b604051610d42929190611600565b90815260200160405180910390209081610d5c91906118a5565b508080610d6890611a47565b915050610cce565b506000600483604051610d8391906116aa565b908152602001604051809103902060006101000a81548160ff02191690836002811115610db357610db2610ede565b5b02179055505050505050565b60606000824244604051602001610dd893929190611af8565b60405160208183030381529060405280519060200120905080604051602001610e019190611b60565b604051602081830303815290604052915050919050565b6000604051905090565b600080fd5b600080fd5b600080fd5b600080fd5b600080fd5b60008083601f840112610e5157610e50610e2c565b5b8235905067ffffffffffffffff811115610e6e57610e6d610e31565b5b602083019150836001820283011115610e8a57610e89610e36565b5b9250929050565b60008060208385031215610ea857610ea7610e22565b5b600083013567ffffffffffffffff811115610ec657610ec5610e27565b5b610ed285828601610e3b565b92509250509250929050565b7f4e487b7100000000000000000000000000000000000000000000000000000000600052602160045260246000fd5b60038110610f1e57610f1d610ede565b5b50565b6000819050610f2f82610f0d565b919050565b6000610f3f82610f21565b9050919050565b610f4f81610f34565b82525050565b6000602082019050610f6a6000830184610f46565b92915050565b600081519050919050565b600082825260208201905092915050565b60005b83811015610faa578082015181840152602081019050610f8f565b60008484015250505050565b6000601f19601f8301169050919050565b6000610fd282610f70565b610fdc8185610f7b565b9350610fec818560208601610f8c565b610ff581610fb6565b840191505092915050565b6000602082019050818103600083015261101a8184610fc7565b905092915050565b6000819050919050565b61103581611022565b811461104057600080fd5b50565b6000813590506110528161102c565b92915050565b60008060006040848603121561107157611070610e22565b5b600084013567ffffffffffffffff81111561108f5761108e610e27565b5b61109b86828701610e3b565b935093505060206110ae86828701611043565b9150509250925092565b600073ffffffffffffffffffffffffffffffffffffffff82169050919050565b60006110e3826110b8565b9050919050565b6110f3816110d8565b81146110fe57600080fd5b50565b600081359050611110816110ea565b92915050565b60006020828403121561112c5761112b610e22565b5b600061113a84828501611101565b91505092915050565b600080fd5b7f4e487b7100000000000000000000000000000000000000000000000000000000600052604160045260246000fd5b61118082610fb6565b810181811067ffffffffffffffff8211171561119f5761119e611148565b5b80604052505050565b60006111b2610e18565b90506111be8282611177565b919050565b600067ffffffffffffffff8211156111de576111dd611148565b5b6111e782610fb6565b9050602081019050919050565b82818337600083830152505050565b6000611216611211846111c3565b6111a8565b90508281526020810184848401111561123257611231611143565b5b61123d8482856111f4565b509392505050565b600082601f83011261125a57611259610e2c565b5b813561126a848260208601611203565b91505092915050565b60008060006040848603121561128c5761128b610e22565b5b600084013567ffffffffffffffff8111156112aa576112a9610e27565b5b6112b686828701611245565b935050602084013567ffffffffffffffff8111156112d7576112d6610e27565b5b6112e386828701610e3b565b92509250509250925092565b600081519050919050565b600082825260208201905092915050565b6000819050602082019050919050565b600082825260208201905092915050565b600061133782610f70565b611341818561131b565b9350611351818560208601610f8c565b61135a81610fb6565b840191505092915050565b6000611371838361132c565b905092915050565b6000602082019050919050565b6000611391826112ef565b61139b81856112fa565b9350836020820285016113ad8561130b565b8060005b858110156113e957848403895281516113ca8582611365565b94506113d583611379565b925060208a019950506001810190506113b1565b50829750879550505050505092915050565b600060208201905081810360008301526114158184611386565b905092915050565b60008083601f84011261143357611432610e2c565b5b8235905067ffffffffffffffff8111156114505761144f610e31565b5b60208301915083602082028301111561146c5761146b610e36565b5b9250929050565b600067ffffffffffffffff82111561148e5761148d611148565b5b602082029050602081019050919050565b60006114b26114ad84611473565b6111a8565b905080838252602082019050602084028301858111156114d5576114d4610e36565b5b835b8181101561151c57803567ffffffffffffffff8111156114fa576114f9610e2c565b5b8086016115078982611245565b855260208501945050506020810190506114d7565b5050509392505050565b600082601f83011261153b5761153a610e2c565b5b813561154b84826020860161149f565b91505092915050565b60008060006040848603121561156d5761156c610e22565b5b600084013567ffffffffffffffff81111561158b5761158a610e27565b5b6115978682870161141d565b9350935050602084013567ffffffffffffffff8111156115ba576115b9610e27565b5b6115c686828701611526565b9150509250925092565b600081905092915050565b60006115e783856115d0565b93506115f48385846111f4565b82840190509392505050565b600061160d8284866115db565b91508190509392505050565b7f4e487b7100000000000000000000000000000000000000000000000000000000600052602260045260246000fd5b6000600282049050600182168061166057607f821691505b60208210810361167357611672611619565b5b50919050565b600061168482610f70565b61168e81856115d0565b935061169e818560208601610f8c565b80840191505092915050565b60006116b68284611679565b915081905092915050565b6116ca81611022565b82525050565b60006040820190506116e560008301856116c1565b6116f260208301846116c1565b9392505050565b60008190508160005260206000209050919050565b60006020601f8301049050919050565b600082821b905092915050565b60006008830261175b7fffffffffffffffffffffffffffffffffffffffffffffffffffffffffffffffff8261171e565b611765868361171e565b95508019841693508086168417925050509392505050565b6000819050919050565b60006117a261179d61179884611022565b61177d565b611022565b9050919050565b6000819050919050565b6117bc83611787565b6117d06117c8826117a9565b84845461172b565b825550505050565b600090565b6117e56117d8565b6117f08184846117b3565b505050565b5b81811015611814576118096000826117dd565b6001810190506117f6565b5050565b601f8211156118595761182a816116f9565b6118338461170e565b81016020851015611842578190505b61185661184e8561170e565b8301826117f5565b50505b505050565b600082821c905092915050565b600061187c6000198460080261185e565b1980831691505092915050565b6000611895838361186b565b9150826002028217905092915050565b6118ae82610f70565b67ffffffffffffffff8111156118c7576118c6611148565b5b6118d18254611648565b6118dc828285611818565b600060209050601f83116001811461190f57600084156118fd578287015190505b6119078582611889565b86555061196f565b601f19841661191d866116f9565b60005b8281101561194557848901518255600182019150602085019450602081019050611920565b86831015611962578489015161195e601f89168261186b565b8355505b6001600288020188555050505b505050505050565b7f4e487b7100000000000000000000000000000000000000000000000000000000600052603260045260246000fd5b600080fd5b600080fd5b600080fd5b600080833560016020038436030381126119d2576119d16119a6565b5b80840192508235915067ffffffffffffffff8211156119f4576119f36119ab565b5b602083019250600182023603831315611a1057611a0f6119b0565b5b509250929050565b7f4e487b7100000000000000000000000000000000000000000000000000000000600052601160045260246000fd5b6000611a5282611022565b91507fffffffffffffffffffffffffffffffffffffffffffffffffffffffffffffffff8203611a8457611a83611a18565b5b600182019050919050565b60008160601b9050919050565b6000611aa782611a8f565b9050919050565b6000611ab982611a9c565b9050919050565b611ad1611acc826110d8565b611aae565b82525050565b6000819050919050565b611af2611aed82611022565b611ad7565b82525050565b6000611b048286611ac0565b601482019150611b148285611ae1565b602082019150611b248284611ae1565b602082019150819050949350505050565b6000819050919050565b6000819050919050565b611b5a611b5582611b35565b611b3f565b82525050565b6000611b6c8284611b49565b6020820191508190509291505056fea2646970667358221220ed922d0a2da5baab4e3fc34d9d4746dff22fdd16db13bee65db6454284bf5e3e64736f6c63430008110033",
  "linkReferences": {},
  "deployedLinkReferences": {}
}