{
  "_format": "hh-sol-artifact-1",
  "contractName": "Credits",
  "sourceName": "contracts/Credits.sol",
  "abi": [
    {
      "inputs": [],
      "stateMutability": "nonpayable",
      "type": "constructor"
    },
    {
      "inputs": [],
      "name": "AccessCanOnlyBeSharedByOwnerOfTheId",
      "type": "error"
    },
    {
      "inputs": [],
      "name": "AccessOnlyToOwner",
      "type": "error"
    },
    {
      "inputs": [
        {
          "internalType": "uint256",
          "name": "NoOfTypes",
          "type": "uint256"
        },
        {
          "internalType": "uint256",
          "name": "NoOfData",
          "type": "uint256"
        }
      ],
      "name": "DataMisMatch",
      "type": "error"
    },
    {
      "inputs": [],
      "name": "NewOwnerCanOnlyRequest",
      "type": "error"
    },
    {
      "inputs": [],
      "name": "NoAccessToData",
      "type": "error"
    },
    {
      "inputs": [],
      "name": "acceptOwnerShip",
      "outputs": [],
      "stateMutability": "nonpayable",
      "type": "function"
    },
    {
      "inputs": [
        {
          "internalType": "string",
          "name": "user_id",
          "type": "string"
        },
        {
          "internalType": "string",
          "name": "data_type",
          "type": "string"
        },
        {
          "internalType": "address",
          "name": "recipient",
          "type": "address"
        }
      ],
      "name": "check_consent",
      "outputs": [
        {
          "internalType": "bool",
          "name": "",
          "type": "bool"
        }
      ],
      "stateMutability": "view",
      "type": "function"
    },
    {
      "inputs": [],
      "name": "getAllUserIds",
      "outputs": [
        {
          "internalType": "string[]",
          "name": "",
          "type": "string[]"
        }
      ],
      "stateMutability": "view",
      "type": "function"
    },
    {
      "inputs": [
        {
          "internalType": "string",
          "name": "userId",
          "type": "string"
        },
        {
          "internalType": "string",
          "name": "data_type",
          "type": "string"
        }
      ],
      "name": "getCredits",
      "outputs": [
        {
          "internalType": "string",
          "name": "",
          "type": "string"
        }
      ],
      "stateMutability": "view",
      "type": "function"
    },
    {
      "inputs": [],
      "name": "getOwner",
      "outputs": [
        {
          "internalType": "address",
          "name": "",
          "type": "address"
        }
      ],
      "stateMutability": "view",
      "type": "function"
    },
    {
      "inputs": [
        {
          "internalType": "string",
          "name": "userId",
          "type": "string"
        }
      ],
      "name": "getStatus",
      "outputs": [
        {
          "internalType": "enum Credits.Status",
          "name": "",
          "type": "uint8"
        }
      ],
      "stateMutability": "view",
      "type": "function"
    },
    {
      "inputs": [],
      "name": "getUserId",
      "outputs": [
        {
          "internalType": "string",
          "name": "",
          "type": "string"
        }
      ],
      "stateMutability": "view",
      "type": "function"
    },
    {
      "inputs": [
        {
          "internalType": "string",
          "name": "user_id",
          "type": "string"
        },
        {
          "internalType": "string",
          "name": "data_type",
          "type": "string"
        },
        {
          "internalType": "address",
          "name": "recipient",
          "type": "address"
        }
      ],
      "name": "give_consent",
      "outputs": [],
      "stateMutability": "nonpayable",
      "type": "function"
    },
    {
      "inputs": [
        {
          "internalType": "string",
          "name": "user_id",
          "type": "string"
        },
        {
          "internalType": "string",
          "name": "data_type",
          "type": "string"
        },
        {
          "internalType": "address",
          "name": "recipient",
          "type": "address"
        }
      ],
      "name": "revoke_consent",
      "outputs": [],
      "stateMutability": "nonpayable",
      "type": "function"
    },
    {
      "inputs": [
        {
          "internalType": "address",
          "name": "_newOwner",
          "type": "address"
        }
      ],
      "name": "transferOwnerShip",
      "outputs": [],
      "stateMutability": "nonpayable",
      "type": "function"
    },
    {
      "inputs": [
        {
          "internalType": "string[]",
          "name": "data_type",
          "type": "string[]"
        },
        {
          "internalType": "string[]",
          "name": "data",
          "type": "string[]"
        }
      ],
      "name": "updateCredits",
      "outputs": [],
      "stateMutability": "nonpayable",
      "type": "function"
    },
    {
      "inputs": [
        {
          "internalType": "string",
          "name": "userid",
          "type": "string"
        },
        {
          "internalType": "bool",
          "name": "verificationStatus",
          "type": "bool"
        }
      ],
      "name": "updateStatus",
      "outputs": [],
      "stateMutability": "nonpayable",
      "type": "function"
    }
  ],
  "bytecode": "0x60806040526000600760006101000a81548173ffffffffffffffffffffffffffffffffffffffff021916908373ffffffffffffffffffffffffffffffffffffffff16021790555034801561005257600080fd5b5033600660006101000a81548173ffffffffffffffffffffffffffffffffffffffff021916908373ffffffffffffffffffffffffffffffffffffffff16021790555061254a806100a36000396000f3fe608060405234801561001057600080fd5b50600436106100b45760003560e01c8063967b8c7211610071578063967b8c721461018d578063ac53520a14610197578063b22b44bc146101c7578063be4906c9146101e3578063cc03251714610201578063fee6a8bf1461021d576100b4565b80631d67506d146100b957806322b05ed2146100d557806326e6d5a1146101055780632ebcb653146101355780638863dd1a14610153578063893d20e81461016f575b600080fd5b6100d360048036038101906100ce91906117b9565b610239565b005b6100ef60048036038101906100ea91906118a4565b610425565b6040516100fc9190611968565b60405180910390f35b61011f600480360381019061011a91906117b9565b61045d565b60405161012c919061199e565b60405180910390f35b61013d6104ed565b60405161014a9190611a38565b60405180910390f35b61016d60048036038101906101689190611a5a565b6105bb565b005b610177610686565b6040516101849190611a96565b60405180910390f35b6101956106b0565b005b6101b160048036038101906101ac9190611ab1565b6107de565b6040516101be9190611a38565b60405180910390f35b6101e160048036038101906101dc91906117b9565b610af1565b005b6101eb610cdd565b6040516101f89190611c39565b60405180910390f35b61021b60048036038101906102169190611c87565b610e3d565b005b61023760048036038101906102329190611e1e565b610f67565b005b60008060003373ffffffffffffffffffffffffffffffffffffffff1673ffffffffffffffffffffffffffffffffffffffff168152602001908152602001600020805461028490611ec9565b80601f01602080910402602001604051908101604052809291908181526020018280546102b090611ec9565b80156102fd5780601f106102d2576101008083540402835291602001916102fd565b820191906000526020600020905b8154815290600101906020018083116102e057829003601f168201915b505050505090506000846040516020016103179190611f36565b604051602081830303815290604052805190602001208260405160200161033e9190611f36565b604051602081830303815290604052805190602001201490508061038e576040517f3121467700000000000000000000000000000000000000000000000000000000815260040160405180910390fd5b60016003866040516103a09190611f36565b908152602001604051809103902060008573ffffffffffffffffffffffffffffffffffffffff1673ffffffffffffffffffffffffffffffffffffffff168152602001908152602001600020856040516103f99190611f36565b908152602001604051809103902060006101000a81548160ff0219169083151502179055505050505050565b600060048383604051610439929190611f72565b908152602001604051809103902060009054906101000a900460ff16905092915050565b600060038460405161046f9190611f36565b908152602001604051809103902060008373ffffffffffffffffffffffffffffffffffffffff1673ffffffffffffffffffffffffffffffffffffffff168152602001908152602001600020836040516104c89190611f36565b908152602001604051809103902060009054906101000a900460ff1690509392505050565b60606000803373ffffffffffffffffffffffffffffffffffffffff1673ffffffffffffffffffffffffffffffffffffffff168152602001908152602001600020805461053890611ec9565b80601f016020809104026020016040519081016040528092919081815260200182805461056490611ec9565b80156105b15780601f10610586576101008083540402835291602001916105b1565b820191906000526020600020905b81548152906001019060200180831161059457829003601f168201915b5050505050905090565b600660009054906101000a900473ffffffffffffffffffffffffffffffffffffffff1673ffffffffffffffffffffffffffffffffffffffff163373ffffffffffffffffffffffffffffffffffffffff1614610642576040517f2dca963600000000000000000000000000000000000000000000000000000000815260040160405180910390fd5b80600760006101000a81548173ffffffffffffffffffffffffffffffffffffffff021916908373ffffffffffffffffffffffffffffffffffffffff16021790555050565b6000600660009054906101000a900473ffffffffffffffffffffffffffffffffffffffff16905090565b600760009054906101000a900473ffffffffffffffffffffffffffffffffffffffff1673ffffffffffffffffffffffffffffffffffffffff163373ffffffffffffffffffffffffffffffffffffffff1614610737576040517f07cc72f800000000000000000000000000000000000000000000000000000000815260040160405180910390fd5b600760009054906101000a900473ffffffffffffffffffffffffffffffffffffffff16600660006101000a81548173ffffffffffffffffffffffffffffffffffffffff021916908373ffffffffffffffffffffffffffffffffffffffff1602179055506000600760006101000a81548173ffffffffffffffffffffffffffffffffffffffff021916908373ffffffffffffffffffffffffffffffffffffffff160217905550565b606060008060003373ffffffffffffffffffffffffffffffffffffffff1673ffffffffffffffffffffffffffffffffffffffff168152602001908152602001600020805461082b90611ec9565b80601f016020809104026020016040519081016040528092919081815260200182805461085790611ec9565b80156108a45780601f10610879576101008083540402835291602001916108a4565b820191906000526020600020905b81548152906001019060200180831161088757829003601f168201915b505050505090506000856040516020016108be9190611f36565b60405160208183030381529060405280519060200120826040516020016108e59190611f36565b60405160208183030381529060405280519060200120149050808061098d57506003866040516109159190611f36565b908152602001604051809103902060003373ffffffffffffffffffffffffffffffffffffffff1673ffffffffffffffffffffffffffffffffffffffff1681526020019081526020016000208585604051610970929190611f72565b908152602001604051809103902060009054906101000a900460ff165b806109e55750600660009054906101000a900473ffffffffffffffffffffffffffffffffffffffff1673ffffffffffffffffffffffffffffffffffffffff163373ffffffffffffffffffffffffffffffffffffffff16145b15610ab8576002866040516109fa9190611f36565b90815260200160405180910390208585604051610a18929190611f72565b90815260200160405180910390208054610a3190611ec9565b80601f0160208091040260200160405190810160405280929190818152602001828054610a5d90611ec9565b8015610aaa5780601f10610a7f57610100808354040283529160200191610aaa565b820191906000526020600020905b815481529060010190602001808311610a8d57829003601f168201915b505050505092505050610aea565b6040517f5397fe6100000000000000000000000000000000000000000000000000000000815260040160405180910390fd5b9392505050565b60008060003373ffffffffffffffffffffffffffffffffffffffff1673ffffffffffffffffffffffffffffffffffffffff1681526020019081526020016000208054610b3c90611ec9565b80601f0160208091040260200160405190810160405280929190818152602001828054610b6890611ec9565b8015610bb55780601f10610b8a57610100808354040283529160200191610bb5565b820191906000526020600020905b815481529060010190602001808311610b9857829003601f168201915b50505050509050600084604051602001610bcf9190611f36565b6040516020818303038152906040528051906020012082604051602001610bf69190611f36565b6040516020818303038152906040528051906020012014905080610c46576040517f3121467700000000000000000000000000000000000000000000000000000000815260040160405180910390fd5b6000600386604051610c589190611f36565b908152602001604051809103902060008573ffffffffffffffffffffffffffffffffffffffff1673ffffffffffffffffffffffffffffffffffffffff16815260200190815260200160002085604051610cb19190611f36565b908152602001604051809103902060006101000a81548160ff0219169083151502179055505050505050565b6060600660009054906101000a900473ffffffffffffffffffffffffffffffffffffffff1673ffffffffffffffffffffffffffffffffffffffff163373ffffffffffffffffffffffffffffffffffffffff1614610d66576040517f2dca963600000000000000000000000000000000000000000000000000000000815260040160405180910390fd5b6005805480602002602001604051908101604052809291908181526020016000905b82821015610e34578382906000526020600020018054610da790611ec9565b80601f0160208091040260200160405190810160405280929190818152602001828054610dd390611ec9565b8015610e205780601f10610df557610100808354040283529160200191610e20565b820191906000526020600020905b815481529060010190602001808311610e0357829003601f168201915b505050505081526020019060010190610d88565b50505050905090565b600660009054906101000a900473ffffffffffffffffffffffffffffffffffffffff1673ffffffffffffffffffffffffffffffffffffffff163373ffffffffffffffffffffffffffffffffffffffff1614610ec4576040517f2dca963600000000000000000000000000000000000000000000000000000000815260040160405180910390fd5b8015610f1857600260048484604051610ede929190611f72565b908152602001604051809103902060006101000a81548160ff02191690836003811115610f0e57610f0d6118f1565b5b0217905550610f62565b600360048484604051610f2c929190611f72565b908152602001604051809103902060006101000a81548160ff02191690836003811115610f5c57610f5b6118f1565b5b02179055505b505050565b80518383905014610fb5578282905081516040517fef8d2917000000000000000000000000000000000000000000000000000000008152600401610fac929190611fa4565b60405180910390fd5b60008060003373ffffffffffffffffffffffffffffffffffffffff1673ffffffffffffffffffffffffffffffffffffffff168152602001908152602001600020805461100090611ec9565b80601f016020809104026020016040519081016040528092919081815260200182805461102c90611ec9565b80156110795780601f1061104e57610100808354040283529160200191611079565b820191906000526020600020905b81548152906001019060200180831161105c57829003601f168201915b5050505050905060008151036111dc57611092336112d8565b6000803373ffffffffffffffffffffffffffffffffffffffff1673ffffffffffffffffffffffffffffffffffffffff16815260200190815260200160002090816110dc9190612179565b506000803373ffffffffffffffffffffffffffffffffffffffff1673ffffffffffffffffffffffffffffffffffffffff168152602001908152602001600020805461112690611ec9565b80601f016020809104026020016040519081016040528092919081815260200182805461115290611ec9565b801561119f5780601f106111745761010080835404028352916020019161119f565b820191906000526020600020905b81548152906001019060200180831161118257829003601f168201915b505050505090506005819080600181540180825580915050600190039060005260206000200160009091909190915090816111da9190612179565b505b600084849050905060005b81811015611289578381815181106112025761120161224b565b5b602002602001015160028460405161121a9190611f36565b908152602001604051809103902087878481811061123b5761123a61224b565b5b905060200281019061124d9190612289565b60405161125b929190611f72565b908152602001604051809103902090816112759190612179565b5080806112819061231b565b9150506111e7565b50600160048360405161129c9190611f36565b908152602001604051809103902060006101000a81548160ff021916908360038111156112cc576112cb6118f1565b5b02179055505050505050565b60606113108242446040516020016112f2939291906123cc565b6040516020818303038152906040528051906020012060001c611317565b9050919050565b606061132e82600161132885611335565b016113c5565b9050919050565b600080600090506000608084901c111561135757608083901c92506010810190505b6000604084901c111561137257604083901c92506008810190505b6000602084901c111561138d57602083901c92506004810190505b6000601084901c11156113a857601083901c92506002810190505b6000600884901c11156113bc576001810190505b80915050919050565b6060600060028360026113d89190612409565b6113e2919061244b565b67ffffffffffffffff8111156113fb576113fa611630565b5b6040519080825280601f01601f19166020018201604052801561142d5781602001600182028036833780820191505090505b5090507f3000000000000000000000000000000000000000000000000000000000000000816000815181106114655761146461224b565b5b60200101907effffffffffffffffffffffffffffffffffffffffffffffffffffffffffffff1916908160001a9053507f7800000000000000000000000000000000000000000000000000000000000000816001815181106114c9576114c861224b565b5b60200101907effffffffffffffffffffffffffffffffffffffffffffffffffffffffffffff1916908160001a905350600060018460026115099190612409565b611513919061244b565b90505b60018111156115b3577f3031323334353637383961626364656600000000000000000000000000000000600f8616601081106115555761155461224b565b5b1a60f81b82828151811061156c5761156b61224b565b5b60200101907effffffffffffffffffffffffffffffffffffffffffffffffffffffffffffff1916908160001a905350600485901c9450806115ac9061247f565b9050611516565b50600084146115f7576040517f08c379a00000000000000000000000000000000000000000000000000000000081526004016115ee906124f4565b60405180910390fd5b8091505092915050565b6000604051905090565b600080fd5b600080fd5b600080fd5b600080fd5b6000601f19601f8301169050919050565b7f4e487b7100000000000000000000000000000000000000000000000000000000600052604160045260246000fd5b6116688261161f565b810181811067ffffffffffffffff8211171561168757611686611630565b5b80604052505050565b600061169a611601565b90506116a6828261165f565b919050565b600067ffffffffffffffff8211156116c6576116c5611630565b5b6116cf8261161f565b9050602081019050919050565b82818337600083830152505050565b60006116fe6116f9846116ab565b611690565b90508281526020810184848401111561171a5761171961161a565b5b6117258482856116dc565b509392505050565b600082601f83011261174257611741611615565b5b81356117528482602086016116eb565b91505092915050565b600073ffffffffffffffffffffffffffffffffffffffff82169050919050565b60006117868261175b565b9050919050565b6117968161177b565b81146117a157600080fd5b50565b6000813590506117b38161178d565b92915050565b6000806000606084860312156117d2576117d161160b565b5b600084013567ffffffffffffffff8111156117f0576117ef611610565b5b6117fc8682870161172d565b935050602084013567ffffffffffffffff81111561181d5761181c611610565b5b6118298682870161172d565b925050604061183a868287016117a4565b9150509250925092565b600080fd5b600080fd5b60008083601f84011261186457611863611615565b5b8235905067ffffffffffffffff81111561188157611880611844565b5b60208301915083600182028301111561189d5761189c611849565b5b9250929050565b600080602083850312156118bb576118ba61160b565b5b600083013567ffffffffffffffff8111156118d9576118d8611610565b5b6118e58582860161184e565b92509250509250929050565b7f4e487b7100000000000000000000000000000000000000000000000000000000600052602160045260246000fd5b60048110611931576119306118f1565b5b50565b600081905061194282611920565b919050565b600061195282611934565b9050919050565b61196281611947565b82525050565b600060208201905061197d6000830184611959565b92915050565b60008115159050919050565b61199881611983565b82525050565b60006020820190506119b3600083018461198f565b92915050565b600081519050919050565b600082825260208201905092915050565b60005b838110156119f35780820151818401526020810190506119d8565b60008484015250505050565b6000611a0a826119b9565b611a1481856119c4565b9350611a248185602086016119d5565b611a2d8161161f565b840191505092915050565b60006020820190508181036000830152611a5281846119ff565b905092915050565b600060208284031215611a7057611a6f61160b565b5b6000611a7e848285016117a4565b91505092915050565b611a908161177b565b82525050565b6000602082019050611aab6000830184611a87565b92915050565b600080600060408486031215611aca57611ac961160b565b5b600084013567ffffffffffffffff811115611ae857611ae7611610565b5b611af48682870161172d565b935050602084013567ffffffffffffffff811115611b1557611b14611610565b5b611b218682870161184e565b92509250509250925092565b600081519050919050565b600082825260208201905092915050565b6000819050602082019050919050565b600082825260208201905092915050565b6000611b75826119b9565b611b7f8185611b59565b9350611b8f8185602086016119d5565b611b988161161f565b840191505092915050565b6000611baf8383611b6a565b905092915050565b6000602082019050919050565b6000611bcf82611b2d565b611bd98185611b38565b935083602082028501611beb85611b49565b8060005b85811015611c275784840389528151611c088582611ba3565b9450611c1383611bb7565b925060208a01995050600181019050611bef565b50829750879550505050505092915050565b60006020820190508181036000830152611c538184611bc4565b905092915050565b611c6481611983565b8114611c6f57600080fd5b50565b600081359050611c8181611c5b565b92915050565b600080600060408486031215611ca057611c9f61160b565b5b600084013567ffffffffffffffff811115611cbe57611cbd611610565b5b611cca8682870161184e565b93509350506020611cdd86828701611c72565b9150509250925092565b60008083601f840112611cfd57611cfc611615565b5b8235905067ffffffffffffffff811115611d1a57611d19611844565b5b602083019150836020820283011115611d3657611d35611849565b5b9250929050565b600067ffffffffffffffff821115611d5857611d57611630565b5b602082029050602081019050919050565b6000611d7c611d7784611d3d565b611690565b90508083825260208201905060208402830185811115611d9f57611d9e611849565b5b835b81811015611de657803567ffffffffffffffff811115611dc457611dc3611615565b5b808601611dd1898261172d565b85526020850194505050602081019050611da1565b5050509392505050565b600082601f830112611e0557611e04611615565b5b8135611e15848260208601611d69565b91505092915050565b600080600060408486031215611e3757611e3661160b565b5b600084013567ffffffffffffffff811115611e5557611e54611610565b5b611e6186828701611ce7565b9350935050602084013567ffffffffffffffff811115611e8457611e83611610565b5b611e9086828701611df0565b9150509250925092565b7f4e487b7100000000000000000000000000000000000000000000000000000000600052602260045260246000fd5b60006002820490506001821680611ee157607f821691505b602082108103611ef457611ef3611e9a565b5b50919050565b600081905092915050565b6000611f10826119b9565b611f1a8185611efa565b9350611f2a8185602086016119d5565b80840191505092915050565b6000611f428284611f05565b915081905092915050565b6000611f598385611efa565b9350611f668385846116dc565b82840190509392505050565b6000611f7f828486611f4d565b91508190509392505050565b6000819050919050565b611f9e81611f8b565b82525050565b6000604082019050611fb96000830185611f95565b611fc66020830184611f95565b9392505050565b60008190508160005260206000209050919050565b60006020601f8301049050919050565b600082821b905092915050565b60006008830261202f7fffffffffffffffffffffffffffffffffffffffffffffffffffffffffffffffff82611ff2565b6120398683611ff2565b95508019841693508086168417925050509392505050565b6000819050919050565b600061207661207161206c84611f8b565b612051565b611f8b565b9050919050565b6000819050919050565b6120908361205b565b6120a461209c8261207d565b848454611fff565b825550505050565b600090565b6120b96120ac565b6120c4818484612087565b505050565b5b818110156120e8576120dd6000826120b1565b6001810190506120ca565b5050565b601f82111561212d576120fe81611fcd565b61210784611fe2565b81016020851015612116578190505b61212a61212285611fe2565b8301826120c9565b50505b505050565b600082821c905092915050565b600061215060001984600802612132565b1980831691505092915050565b6000612169838361213f565b9150826002028217905092915050565b612182826119b9565b67ffffffffffffffff81111561219b5761219a611630565b5b6121a58254611ec9565b6121b08282856120ec565b600060209050601f8311600181146121e357600084156121d1578287015190505b6121db858261215d565b865550612243565b601f1984166121f186611fcd565b60005b82811015612219578489015182556001820191506020850194506020810190506121f4565b868310156122365784890151612232601f89168261213f565b8355505b6001600288020188555050505b505050505050565b7f4e487b7100000000000000000000000000000000000000000000000000000000600052603260045260246000fd5b600080fd5b600080fd5b600080fd5b600080833560016020038436030381126122a6576122a561227a565b5b80840192508235915067ffffffffffffffff8211156122c8576122c761227f565b5b6020830192506001820236038313156122e4576122e3612284565b5b509250929050565b7f4e487b7100000000000000000000000000000000000000000000000000000000600052601160045260246000fd5b600061232682611f8b565b91507fffffffffffffffffffffffffffffffffffffffffffffffffffffffffffffffff8203612358576123576122ec565b5b600182019050919050565b60008160601b9050919050565b600061237b82612363565b9050919050565b600061238d82612370565b9050919050565b6123a56123a08261177b565b612382565b82525050565b6000819050919050565b6123c66123c182611f8b565b6123ab565b82525050565b60006123d88286612394565b6014820191506123e882856123b5565b6020820191506123f882846123b5565b602082019150819050949350505050565b600061241482611f8b565b915061241f83611f8b565b925082820261242d81611f8b565b91508282048414831517612444576124436122ec565b5b5092915050565b600061245682611f8b565b915061246183611f8b565b9250828201905080821115612479576124786122ec565b5b92915050565b600061248a82611f8b565b91506000820361249d5761249c6122ec565b5b600182039050919050565b7f537472696e67733a20686578206c656e67746820696e73756666696369656e74600082015250565b60006124de6020836119c4565b91506124e9826124a8565b602082019050919050565b6000602082019050818103600083015261250d816124d1565b905091905056fea2646970667358221220a050f26b41c5a3604a7dabdccce9f6561ebce37c8e6444112763a267b572f39464736f6c63430008110033",
  "linkReferences": {},
  "deployedLinkReferences": {}
}